:100000000C942A000C9449000C9447000C9447006F
:100010000C9447000C9447000C9447000C94470044
:100020000C9447000C9447000C9447000C94470034
:100030000C9447000C9447000C9456000C94470015
:100040000C9447000C9447000C9447000C94470014
:100050000C94470011241FBECFE5D4E0DEBFCDBF16
:1000600010E0A0E6B0E0EEE8F7E002C005900D92E7
:10007000AA37B107D9F720E0AAE7B0E001C01D9286
:10008000AA3AB207E1F70E94A9010C94C5030C94A7
:1000900000001F920F920FB60F92112415BA109202
:1000A00070000F900FBE0F901F9018951F920F9227
:1000B0000FB60F9211248F939F93EF93FF9380912C
:1000C0008400E82FF0E095B1E656FF4F90838F5FF4
:1000D0008093840080918400883011F41092840011
:1000E00080918400805A87B98CEC86B9FF91EF919A
:1000F0009F918F910F900FBE0F901F901895CF93E7
:10010000DF9381E085BB80E090E045E950E0FC01B1
:10011000E656FF4F3081FC01E458FF4F2081231742
:1001200040F4FC01E656FF4F2081FC01E458FF4FEC
:100130002083FC01E656FF4F3081FC01EF58FF4F52
:100140002081321740F4FC01E656FF4F2081FC016C
:10015000EF58FF4F2083DC01A458BF4F2C91FC01C6
:10016000EF58FF4F3081231BEC01CE55DF4F288322
:100170006C91208130E0260F311D35952795FA01CD
:10018000208301968830910511F6DF91CF91089573
:100190001F93CF93DF9310927B0010927A0020E0A0
:1001A00030E014E6F901E656FF4F9081F901E4587A
:1001B000FF4F8081891740F4F901E656FF4F808197
:1001C000F901E458FF4F8083F901E656FF4F908113
:1001D000F901EF58FF4F8081981740F4F901E65676
:1001E000FF4F8081F901EF58FF4F8083F901E458F8
:1001F000FF4F8081D901AF58BF4F9C91891BF901F6
:10020000EE55FF4F8083E901C656DF4F48818C9140
:10021000608150E0481B5109149FC001159F900D4B
:10022000112470E00E949D03F901EB57FF4F60839A
:100230008081853620F0F901EB57FF4F1083F901DB
:10024000EB57FF4F408180917A0090917B00840FA3
:10025000911D90937B0080937A002F5F3F4F283051
:10026000310509F09FCFDF91CF911F910895CF9273
:10027000DF92EF92FF92CF93DF931092950010924E
:1002800096001092970010929800C0E0D0E0FE0116
:100290002196EB57FF4F8081C0909500D09096003B
:1002A000E0909700F09098008C9FB0018D9F700DAA
:1002B0001124882777FD8095982F0E941103A701AC
:1002C00096010E941702462F572F682F792F4093CF
:1002D0009500509396006093970070939800C830F3
:1002E000D105A9F6C0909500D0909600E0909700B7
:1002F000F090980060917A0070917B00882777FDDC
:100300008095982F0E9411039B01AC01C701B60193
:100310000E947B02462F572F682F792F409395001C
:1003200050939600609397007093980060919500A9
:100330007091960080919700909198000E94E3023E
:1003400060939900DF91CF91FF90EF90DF90CF9075
:10035000089578940E94D9010E94F5010E94E1015C
:100360008FEF87BB90E391BB96E098BB85BB80E69F
:1003700087B98CEC86B902C00E947F008091700022
:100380008111FACF0E94C8000E943701E0919900C4
:10039000F0E0E05AFF4F808190E09BBD8ABDE09184
:1003A0009900F0E0E859FF4F808190E099BD88BD49
:1003B000E5CFA09AA19A1ABA8AE085BF80EC8BBFDC
:1003C00008958EB588608EBD8FB581608FBD8FB565
:1003D00080688FBD8FB580628FBD8EB582608EBD07
:1003E00082E089BF82E38CBF08955A985B98589841
:1003F000569857985598549A539A5198509880B552
:100400008F7B80BD529880B5846080BD80B582604E
:1004100080BD80B58F7D80BD80B58F7E80BD80B56D
:10042000877F80BD10BC83E389B908955058BB27EE
:10043000AA270ED048C139D130F03ED120F031F496
:100440009F3F11F41EF42EC10EF4E095E7FB24C18A
:10045000E92F4AD180F3BA1762077307840795071B
:1004600018F071F49EF562C10EF4E0950B2EBA2FD0
:10047000A02D0B01B90190010C01CA01A0011124AA
:10048000FF27591B99F0593F50F4503E68F11A1656
:10049000F040A22F232F342F4427585FF3CF4695E7
:1004A00037952795A795F0405395C9F77EF41F1609
:1004B000BA0B620B730B840BBAF09150A1F0FF0FD3
:1004C000BB1F661F771F881FC2F70EC0BA0F621FBF
:1004D000731F841F48F4879577956795B795F795AF
:1004E0009E3F08F0B3CF9395880F08F09927EE0F41
:1004F0009795879508950CD0E6C0DED040F0D5D012
:1005000030F021F45F3F19F0C7C0511110C1CAC0CB
:10051000EBD098F39923C9F35523B1F3951B550BF1
:10052000BB27AA2762177307840738F09F5F5F4FC6
:10053000220F331F441FAA1FA9F333D00E2E3AF007
:10054000E0E830D091505040E695001CCAF729D021
:10055000FE2F27D0660F771F881FBB1F2617370770
:100560004807AB07B0E809F0BB0B802DBF01FF27A0
:1005700093585F4F2AF09E3F510568F08DC0D7C059
:100580005F3FECF3983EDCF3869577956795B795DA
:10059000F7959F5FC9F7880F911D9695879597F9F5
:1005A0000895E1E0660F771F881FBB1F621773076E
:1005B0008407BA0720F0621B730B840BBA0BEE1F83
:1005C00088F7E095089598D088F09F5790F0B92F5C
:1005D0009927B751A0F0D1F0660F771F881F991F98
:1005E0001AF0BA95C9F712C0B13081F09FD0B1E0CE
:1005F00008959CC0672F782F8827B85F39F0B93FDE
:10060000CCF3869577956795B395D9F73EF4909599
:100610008095709561957F4F8F4F9F4F0895E89417
:1006200009C097FB3EF490958095709561957F4F3A
:100630008F4F9F4F9923A9F0F92F96E9BB279395E8
:10064000F695879577956795B795F111F8CFFAF4F8
:10065000BB0F11F460FF1BC06F5F7F4F8F4F9F4F29
:1006600016C0882311F096E911C0772321F09EE887
:10067000872F762F05C0662371F096E8862F70E0ED
:1006800060E02AF09A95660F771F881FDAF7880FC7
:100690009695879597F9089597F99F6780E870E098
:1006A00060E008959FEF80EC089500240A941616E8
:1006B000170618060906089500240A941216130650
:1006C000140605060895092E0394000C11F48823DE
:1006D00052F0BB0F40F4BF2B11F460FF04C06F5FFA
:1006E0007F4F8F4F9F4F089557FD9058440F551FD0
:1006F00059F05F3F71F04795880F97FB991F61F0A4
:100700009F3F79F087950895121613061406551F1A
:10071000F2CF4695F1DF08C0161617061806991F86
:10072000F1CF86957105610508940895E894BB277B
:1007300066277727CB0197F9089597FB072E16F4C4
:10074000009407D077FD09D00E94B10307FC05D0C3
:100750003EF4909581959F4F0895709561957F4FD8
:100760000895AA1BBB1B51E107C0AA1FBB1FA617F8
:10077000B70710F0A61BB70B881F991F5A95A9F74A
:0E07800080959095BC01CD010895F894FFCFAF
:10078E000000648296BEC8F0FAE6D2A0827800001D
:0A079E0001FFFFFFFFFFFFFFFF0058
:00000001FF
