:100000000C942A000C94A6000C94D0000C94470089
:100010000C9447000C9447000C9447000C94470044
:100020000C9447000C9447000C9447000C94470034
:100030000C9447000C9447000C9447000C94470024
:100040000C9447000C9447000C9447000C9451000A
:100050000C94470011241FBECFE5D4E0DEBFCDBF16
:1000600010E0A0E6B0E0E8EFF2E002C005900D92EB
:10007000A036B107D9F720E0A0E6B0E001C01D929C
:10008000A836B207E1F70E9449000C947A010C945B
:10009000000078940E942C010E9451010E943401BA
:1000A000FFCF1F920F920FB60F9211242F933F9301
:1000B0004F935F936F937F938F939F93AF93BF9370
:1000C000EF93FF938091620090916300019690936B
:1000D00063008093620080916000909161000196BE
:1000E0009093610080936000809162009091630022
:1000F000089714F415BA0DC08091620090916300C6
:10010000409729F4109263001092620002C08FEFB2
:1001100085BB80916000909161000B9734F0109244
:100120006100109260000E947501FF91EF91BF91F4
:10013000AF919F918F917F916F915F914F913F917F
:100140002F910F900FBE0F901F9018951F920F9236
:100150000FB60F9211242F933F934F935F936F939A
:100160007F938F939F93AF93BF93EF93FF930E94DF
:10017000FA0019BC18BC8CE390E09BBD8ABDFF91CE
:10018000EF91BF91AF919F918F917F916F915F910F
:100190004F913F912F910F900FBE0F901F90189588
:1001A0001F920F920FB60F9211242F933F934F93EC
:1001B0005F936F937F938F939F93AF93BF93EF93CF
:1001C000FF930E9413018CE390E099BD88BD1BBC96
:1001D0001ABCFF91EF91BF91AF919F918F917F9149
:1001E0006F915F914F913F912F910F900FBE0F90A4
:1001F0001F901895809164009091650001969093EE
:1002000065008093640080FD02C0A8980895817005
:100210009078992324F401978E6F9F6F0196019730
:1002200009F4A89A0895809166009091670001965C
:10023000909367008093660080FD02C0A99808959E
:1002400081709078992324F401978E6F9F6F0196A7
:10025000019709F4A99A0895A09AA19A1ABA8AE076
:1002600085BF80EC8BBF089583B7806483BF83B75D
:10027000846083BF83B7816083BF8EB588608EBD85
:100280008FB581608FBD8FB580688FBD8FB580625F
:100290008FBD8EB582608EBD82E089BF82E38CBF48
:1002A00008955A985B985898569857985598549A24
:1002B000539A5198509880B58F7B80BD529880B5E5
:1002C000846080BD80B5826080BD80B58F7D80BD3B
:1002D00080B58F7E80BD80B5806880BD80B5877F0A
:1002E00080BD10BC83E389B908955D9BFECF81E694
:0802F0008CB90895F894FFCFCA
:00000001FF
